:100000006F10F07A130000001300000013000000CE
:100010001300000013000000130000001300000094
:100020001300000013000000130000001300000084
:08003000130000007300100032
:100038000000000000000000480200004C02000020
:1000480000000000461F0000000000000000000043
:10005800481F00004A1F00000000000000000000C8
:100068004C1F0000000000004E1F000000000000B0
:10007800501F0000521F0000541F0000561F0000B0
:10008800581F00005A1F00005C1F00005E1F000080
:10009800601F0000621F0000641F0000661F000050
:1000A800681F00006A1F00006C1F00006E1F000020
:1000B800701F0000721F0000741F0000761F0000F0
:1000C800781F00007A1F00007C1F00007E1F0000C0
:1000D800801F0000BC070000841F0000861F00006E
:1000E800A2140000941700008C1F00008E1F00004F
:1000F800901F0000921F0000941F0000961F000030
:10010800981F0000061D00009C1F00009E1F000095
:10011800A01F0000A21F0000A41F0000A61F0000CF
:10012800A81F0000AA1F0000AC1F0000000000006C
:080138000000000000000000BF
:10014000397101436EC619A0397141536AC866CA34
:1001500062CC5ECE19A0397101535AD056D252D416
:100160004ED64AD826DA22DC06DE3301614082828E
:1001700041114AC026C222C406C68282B24D410144
:10018000024D924C224CB24B4101024B924A224A00
:10019000B2494101024992442244B2404101828065
:1001A0003D432A876373C3029377F700BDEFADE544
:1001B000937606FF3D8ABA960CC34CC30CC74CC756
:1001C0004107E36BD7FE11E28280B306C3408A0683
:1001D0009702000096966780A6002307B700A30643
:1001E000B7002306B700A305B7002305B700A30493
:1001F000B7002304B700A303B7002303B700A3028B
:10020000B7002302B700A301B7002301B700A30082
:10021000B7002300B700828093F5F50F9396850011
:10022000D58D93960501D58D61B7939627009702DA
:10023000000096968682E78086FA9680C1171D8F09
:100240003E96E374C3F8A5B77300203001A09387EE
:1002500081849386071405467D5790A398B3B8A36D
:10026000B8B3D8A3D8B3F8A3F8B3A107E397D7FEE0
:100270008280EFF25FEE138781842A84814793891D
:10028000818493068002082393F4F70F51CD18342C
:100290008E07CE9798B37830294974203307270307
:1002A000238007003697B8A358305420330727031C
:1002B0003697B8B338303420330727033697D8A39E
:1002C0001830D8B31820F8A31824F8B38947631B53
:1002D000F7049305140013052400EF10C0679387FB
:1002E0001400183493F7F70F8E07CE9798B3783031
:1002F000742023800700330727033697B8A35830AC
:100300005420330727033697B8B33830330927030F
:1003100038203A99183023822701D8B31820F8A33F
:100320000547F8B3054529A089074107E39DD7F4A0
:10033000A9BDEFF2FFE31D7181452A89130620054F
:10034000680002C223140100A13D83C78181814658
:1003500013848181930570029384818463FCF50288
:1003600091C21CA0B7272020938707023EC089674F
:10037000938707026C000A857C82EF00701D68007D
:10038000EF002069EF008079EF00806C01452300C9
:10039000040059A0139737003386E4006822631FD6
:1003A0002507102225EE91C21CA026973423A947C9
:1003B000D95533D6F6020A85D0823306B602B296F4
:1003C00054823433582333D6F602B357F702D08120
:1003D000DC803306B602B387B702B2966C00548154
:1003E000BA975C80EF00D016680025251C208E0788
:1003F000A697E823EF00207B1C208E07A697C83322
:10040000EF0040671C208E07BE94E830EF0020729A
:100410001C20054589071CA02561ADBB890793F702
:10042000F70F854625BFEFF2BFD41D7181452A899C
:1004300013062005680002C223140100953383C708
:100440008181814613848181930570029384818424
:1004500063FAF50291C21CA0B727202093870702F8
:100460003EC08967938707026C000A857C82EF0093
:10047000300E6800792BEF00606AD92B014523000C
:10048000040049A0139737003386E4004832631D07
:100490002507102235EA91C21CA026973423A947CC
:1004A000D95533D6F6020A85D0823306B602B29603
:1004B00054823433582333D6F602B357F702D0812F
:1004C000DC803306B602B387B702B2966C00548163
:1004D000BA975C80EF00D0076800252B1C208E07A0
:1004E000A697E823EF00206C1C208E07A697C83340
:1004F00051231C208E07BE94E830152D1C20054585
:1005000089071CA0256179B1890793F7F70F854604
:1005100081B703C78181938781849306E7FF8E06A5
:100520007D17BE9605460E0790A2BA9790A38280CB
:10053000938781849386071405466395F600238C80
:100540000180828090A3A107CDBF238C018082808F
:1005500003C581818280EFF2BFC185474111AA8422
:1005600013849181638DF50481C58947639DF500EE
:100570002685EF00206C8947638BF40263EA9700BD
:1005800085476381F4020820EF10E065410119B14D
:100590008D476382F4029147E397F4FE1C2093E7B2
:1005A000870021A01C2093E717001CA0E9BF1C2096
:1005B00093E72700DDBF1C2093E74700FDB72EC659
:1005C000EF00A07089476383F402B24563E79700A8
:1005D000E39BB4FA1C20F99BC9BF8D47638BF400E1
:1005E0009147E392F4FA1C20DD9BC1B71C20F59BD8
:1005F0006DBF1C20ED9B55BFEFF29FB7FD5741111A
:100600003EC69387818413830714130EF00F0547AA
:10061000854E89481D4F03C807006310080603C8AC
:100620004700631CC80403C837006318B80403C834
:1006300027006314A80403C857006304D800631E8E
:10064000E80303C86700930F01017E98834FC8FF3A
:100650006396CF0783CF7700230EF8FF03C81700F8
:10066000631DE80003C877006311E80603C8F7FFBD
:10067000631F180598A3238CE7FEA107E39D67F885
:100680000C869307F00F6384F5000145E9358C86ED
:100690009307F00F6384F5000545753D0C879307BC
:1006A000F00F6384F50009457D358C879307F00FC3
:1006B0006384F5000D4545354101E9BC83CF7700E2
:1006C000E39EEFF8230EE8FE51BFE30818FB2380FA
:1006D000D70165B7EFF2DFA901118545114502CABF
:1006E00002CC02CE02C402C62318010002C002C21C
:1006F000EF10303E37190140E97793870793C144E3
:100700000D444C0813050980FC8226CE22CCEF1044
:10071000701285452145EF10D03BFD779387873FC9
:100720004C08130509C0FC8226CE22CCEF10901095
:1007300085454145EF10F03999674C083715014060
:10074000FC8226CE22CCEF10F00EB707002003A4C7
:10075000470185641385048085459384449CEF108C
:100760005037B354940289472C003EC6231501002C
:10077000335494027D14608437340140130504C05F
:10078000EF10F0380546130504C08545EF105040C2
:100790008545130504C0EF10D040930790127C806C
:1007A0000A8585473EC223010100EF10501C854594
:1007B000130504C0EF10503C0561E9BA011122CEC7
:1007C000373401408545130504C026CC4ACA4EC8BB
:1007D00052C656C45AC25EC0EF10703D05CD854565
:1007E000130504C0EF10F03B83D7C1819384C1810E
:1007F00099C3FD179EA003C7E1818546751713773E
:10080000F70F1389E1819387F18163E0E602982372
:1008100009EF94A37244E2445249C249324AA24ABF
:10082000124B824B056173002030938BB181238082
:10083000070083C70B000964096B139717001306A1
:10084000C46C93054B6B8A07B297BA9588438E2187
:10085000896A096AEF10D00E8347090013068A706F
:1008600093858A6F139717008A07B297BA958843C2
:100870008E219389B181938A8A6FEF10B00D83C75F
:100880000B001307C46C2D46850793F7F70F9306EB
:100890004B6B130A8A70138481986384C704238086
:1008A000F90083C70900139617008A07BA97B29612
:1008B00088438E22EF10100A03C7090083470900FE
:1008C0003A9418203357F740058B29D71397170010
:1008D0008A07BA9AD29783D50A008843EF10500648
:1008E00015BF83470900238009002146850793F738
:1008F000F70F6385C7002300F90065B793859182E0
:1009000090212300090021C685679387075005467B
:100910009EA02380C18223800500096593854199AB
:1009200023A6B18213058565814721483386F500EA
:10093000102201C62A96034606FEB308F40023805F
:10094000C8008507E39407FF238DF180BDA09220A6
:100950002DE61386018208220948630D05098D479B
:100960006304F50A8547631AF5049387C1828C43B3
:10097000882515C91306005092A009651386150035
:1009800090C313058565814721483386F5001032F1
:10099000B308F40085072A96034606FE2380C800A4
:1009A000E39507FF55B7938741996388F5008567FD
:1009B000938707509EA023000601938721829023EE
:1009C00011C603C611822380070010A493874182B9
:1009D000902311C603C631822380070010B4938789
:1009E00071829023E30F06EA03C651822380070039
:1009F00030A445BD930500508EA08D450CA2232048
:100A000004002322040089B785479CA12300060027
:100A10006DB71387419993864199130717059387FB
:100A20004199230007007D17E31DD7FE8146330758
:100A3000D500102313F7F60F850601EABA97238035
:100A400007000547A384E18282803E9710A3C5B7C3
:100A500093871182982385461377C70598A323812E
:100A6000D1829387318298231377C70598A3238275
:100A7000D1828280EFF2CFEF41112AC6D13F3245B9
:100A80009D4763E2A7028967938787630A053E95BE
:100A90001C4182879387118298231367170098A3BC
:100AA00005472381E18241016FF0CFEE93871182E8
:100AB000982313670702E5B793871182982313677A
:100AC00007F8F1BF93871182982313672700C1BFEE
:100AD0009387318298231367170098A305472382D1
:100AE000E182D1B793873182982313670702F5B764
:100AF000938731829823136707F8C5B793873182AC
:100B0000982313672700D1BF938711829823136717
:100B1000070498A305472381E1828280938711828D
:100B200098230D9B98A305472381E1828280EFF2F1
:100B30002FE441112AC6DD37324505476302E5023D
:100B400019C589476307F50241016FF0AFE4938748
:100B50001182942393E6060194A32381E182EDB7E9
:100B60009387118298231367870098A32381A1821A
:100B7000E1BF93871182942393E64600F1BF9387E8
:100B8000118298231377F7FB98A305472381E1820D
:100B90008280938731829823137737FA98A3054789
:100BA0002382E1828280EFF2AFDC41112AC6D53781
:100BB00032458947630FF50263E8A7008547630163
:100BC000F50241016FF00FDD8D47630EF50291478D
:100BD000E319F5FE9387318298231367070439A838
:100BE0009387318298231367070198A32382A182F8
:100BF000C9BF9387318298231367870098A305475D
:100C00002382E1827DBF9387318298231367470057
:100C1000F5B7938751829823419B98A30547A383F7
:100C2000E182828003C76182A382E1820547A383B8
:100C3000E1828280EFF2CFD341112AC6E5373245F7
:100C4000094793875182630AE504636BA700054750
:100C50006308E50298232383E18241016FF08FD37B
:100C60000D47630AE5041147E316E5FE9823136771
:100C7000270098A313878182142393E626003DA0C2
:100C800098231367470098A313878182142393E660
:100C9000460014A3A383A18275BF9823136787001E
:100CA00098A313878182142393E6860014A38546B4
:100CB000A383D18245B798231367170098A313879E
:100CC0008182142393E61600D5B7EFF26FCA411163
:100CD0002AC6893F32450947938751826306E50456
:100CE000636BA70005476306E50298232383E1822F
:100CF00041016FF02FCA0D476304E5041147E31665
:100D0000E5FE9823759B98A3138781821423F59A97
:100D10001DA098236D9B98A3138781821423ED9ABD
:100D200014A3A383A182D1B798235D9B98A31387B3
:100D300081821423DD9A14A38546A383D18275B7DB
:100D40009823799B98A3138781821423F99AE5B796
:100D50005C31130700026386E7009387070393F76C
:100D6000F70F9CA15C21130700026386E7009387BD
:100D7000070393F7F70F9CB19307D002BCA13C3156
:100D8000130700026386E7009387070393F7F70FC3
:100D9000BCB13C21130700026386E7009387070379
:100DA00093F7F70FDCA19307D002DCB11C311307D6
:100DB00000026386E7009387070393F7F70FFCA110
:100DC0001C21130700026386E7009387070393F74C
:100DD000F70FFCB1238405008280372720209387FA
:100DE000819E1307070298C3D8C309671307070238
:100DF0009AA7828009679387819E13070702BAA387
:100E00003727202013070702D8C38280EFF24FB69E
:100E100041112AC6EF00B0249387819E982793073B
:100E200000021384819E32456306F7001CA4FD3145
:100E3000D13732453C2013070002638BE70078204E
:100E400078B0583078A0582058B038303CB058A00E
:100E5000EF00407C28A09385419F13052400CD3DE1
:100E60001385419F7D3641016FF0CFB2EFF24FB055
:100E70001384819E3C2013070002638DE702FD1757
:100E800093F7F70F8D46814463E3F60218B0C93635
:100E9000282008A0093BB93F9385419F13052400F2
:100EA000453D1385419FB5368544EFF00FEA268511
:100EB0006FF04FAE08208544E30BF5FEEFF06FC7EF
:100EC000FDB7EFF2EFAA1387819E3C239306000241
:100ED000638FD7021D4781446368F7021384819EA4
:100EE0001D4581C7FD1713F5F70F08B06136193797
:100EF0009385419F13052400A13D1385419FEFF089
:100F00005FB18544EFF06FE426856FF0AFA808333A
:100F10008544E30BF5FEEFF00FD1FDB7EFF2AFA381
:100F20001384819E08201307000241116300E50627
:100F30001C306385E7069309240081454E85EF0048
:100F4000701221C929469385819E0A8523140400C5
:100F5000EF1040630A85EFF0CFB119CD4E85938530
:100F6000419FFD331385419FEFF0BFAA0830EFF09A
:100F70007FB008246D3E19A8372500001305857C35
:100F8000EFF03FA93931593EEFF09FAC41016FF0CE
:100F9000CF9F372500001305457EDDB7382063025B
:100FA000F7049304240085452685EF00B00B75D126
:100FB000930700109305140026851EA4EF00D02689
:100FC00029469385819E0A85EF10C05B0A85EFF064
:100FD0004FAA5DD126859385419F9D3B1385419FF7
:100FE00061B78145EFF02FD7CD3B6536EF00100696
:100FF00071BFEFF24F961384819E08201307000201
:1010000041116303E5061C306388E7069309240059
:1010100081454E85EF00100539C9854729469385DE
:10102000819E0A851EA4EF10E0550A85EFF06FA49B
:1010300005C14E859385419F213B1385419FEFF06C
:101040005F9D0830EFF01FA30824EFF05FAE29A8E2
:10105000372500001305857CEFF0BF9BEFF07FB3D1
:10106000EFF0DFABEFF0DF9E41016FF00F9237251D
:1010700000001305457ECDB738206302F7049304C2
:10108000240085452685EF00E07D75D1930710107B
:101090009305140026851EA4EF0010192946938598
:1010A000819E0A85EF10004E0A85EFF08F9C4DD18E
:1010B00026859385419F69391385419F49B78545A9
:1010C000EFF06FC9193BEFF0DFACEF00207869BF9C
:1010D000EFF20F8A1384819E1C2013070002411136
:1010E0006384E7061C306389E70681451385A19E6A
:1010F000EF00407729CD89471EA429469385819E1C
:101100000A85EF1020480A85EFF0AF9615C1938548
:10111000419F1385A19EEFF0BFC31385419FEFF060
:101120005F8F0830EFF01F950824EFF05FA029A82B
:10113000372500001305857CEFF0BF8DEFF07FA50C
:10114000EFF0DF9DEFF0DF9041016FF0AF843725C6
:1011500000001305457ECDB738206302F7028545B0
:101160001385A19EEF0000707DD193072010930599
:1011700014001385A19E1EA4EF00100BBDBF9305A4
:1011800014001385A19EEF00007D930710102946DF
:101190009385819E0A851EA4EF10C03E0A85EFF05C
:1011A0004F8D59D508208145EFF0EFBA8DB7EFE2AA
:1011B0003FFCEF00C06AEFF0BF8937250000130540
:1011C0004579EFF01F85A5441144CD2E7DDDD52E48
:1011D00063049500E31B85FEEFF05F94EFF07F9BC7
:1011E000EFF05FA4EFF07FBFEF0040666FE09FFA83
:1011F000EFE21FF81384819E3820930700026300FA
:10120000F7040C30638DF5021820631AF7021C24D2
:101210006397E702930424002685EF00C06E15ED66
:10122000372500001305457EEFF0AFFEA5441144BD
:1012300071267DDD792663049500E31B85FEEFF0C2
:10124000FF8DEFF01F95EFF0FF9DEFF01FB9EF005E
:10125000E05FEFF08FAF6FE0FFF30C302685EF001B
:10126000D01DF1BFEFE2DFF0EFF0BF92EFF01F8B88
:10127000EFF00FFEEFF0FF99EFF03FB6EF00205ECA
:101280009385419F1385A19EEFF09FAC1385419FED
:10129000EFF02FF8EFF06FAB6FE0DFEFEFE25FED15
:1012A000EFF00FAB35C93725000013054577EFF098
:1012B0004FF6A5443949114411267DDD1926630CEA
:1012C000950463062501E31985FE693FB1A0372522
:1012D000000013054578EFF0CFF3A54439491144D8
:1012E000F12C7DDDF92C6308950263052501E319D6
:1012F00085FEE1BFEFF0EFA1372500001305C578AB
:10130000EFF02FF11144A544552C7DDD5D2CE30E4B
:1013100085FAE31B95FEE93D6FE0DFE7EFE25FE56D
:101320003D2B372500001305457AEFF08FEEA544DD
:101330004D49114461247DDD6924630C95046306E5
:101340002501E31985FE393FB1A0372500001305BB
:101350004578EFF00FECA5443949114485247DDD33
:101360008D246308950263052501E31985FEE1BF1D
:10137000EFF00F9C372500001305457BEFF06FE978
:101380001144A544252C7DDD2D2CE30E85FAE31BAD
:1013900095FEB93D6FE01FE0EFE29FDD9307F5FF9B
:1013A00093F7F70F49476363F70409678A07130741
:1013B0008772BA979C438287253D6FE0BFDD5D351C
:1013C000EDBFE93DDDBF993FCDBFD533FDB7EFF0B0
:1013D000FFA9E5B7EFF0FFAECDB7EFF03FB4F1BF37
:1013E000EFF03FC1D9BFEFF0BFCEC1BFEFF01FA2FA
:1013F000E9B7EFE2FFD701118545114502CA02CCDA
:1014000002CE02C402C62318010002C002C2EF00CD
:10141000506C37140140BD47FC828D44C1474C08D5
:10142000130504803ECE26CCEF00D04085452145F3
:10143000EF00306A8567938777C0FC824C0893077A
:101440008002130504C03ECE26CCEF00B03E854599
:101450000545EF00F069BD473EC42C00A167370584
:1014600000403EC6EF00B06A05468545370500409E
:10147000EF001072854537050040EF00907293072A
:10148000C0227C800A8585473EC223010100EF000F
:10149000104E854537050040EF00106E05616FE086
:1014A0007FCF797185453705004022D626D44AD2B0
:1014B0004ED052CE56CC5ACA5EC862C6EF00306FCC
:1014C00041C1854537050040EF00B06D83C71183EA
:1014D0009386C180139717000D69BA968A07130780
:1014E0004984BA978E2288430D6B8D6BEF0050456F
:1014F00013841183238801829389C180130949844D
:1015000093840183130B4B82938B0B83138A81A4E7
:10151000938A01A69C20114C6370FC041C20139735
:1015200017008A07CA97BA99884383D50900EF0044
:1015300070421C20850793F7F70F638E87071CA066
:101540003254A25412598259724AE24A524BC24B47
:10155000324C456173002030139717008A075A9761
:10156000DE970E238843EF00103C1C209546982000
:10157000B387D702BA9705C93307FA00142399E64F
:1015800085471CA39C2085079CA069B73387FA0078
:101590001423EDFA854614A32389D182138781A7EA
:1015A000BA9794A3C5B73387FA00D29723000700F0
:1015B00023800700C1BF2300040059B703C521835E
:1015C0008280938581A701468147938681A79548AC
:1015D000114301473385E50008211378F70F330ED7
:1015E000C70011CD1545B387A7023387C601230075
:1015F000070023890182C29713F5F70F8280050740
:10160000E31A17FD850793F7F70F15069505E39283
:1016100067FC82809307B5FF93F7F70F3147636A42
:10162000F70209678A071307077FBA979C438287E7
:1016300005458280094582800D4582801145828062
:1016400015458280194582801D4582802145828012
:1016500025458280EFE2DFB10945EF00F030EF0071
:10166000706CEFE0DFBEEFF04FF7EFF0AF861520C4
:10167000F12AEFF01FD8C121EF0020792945EF00B2
:10168000106DEF00007D1D3F7DDD253FEFF0DFD0C9
:10169000DDBFEFE2FFAD01118545094502CA02CC6D
:1016A000231E010002C602C8EF009044B7070020C5
:1016B00083C717012167130787F8BA9737040040DB
:1016C000FC844C089307305C130504403ECA231D7C
:1016D0000100EF00D0430546130504408545EF00A7
:1016E000304B854513050440EF00B04B9307D00203
:1016F0007C86680085473EC823070100EF0030273D
:10170000854513050440EF00304705616FE09FA851
:1017100083C74183BDCFEFE2BFA5B707002083C6D3
:101720000701A947411133D7F602938606039305B3
:10173000D0024C83CC842306010013060703508299
:1017400059563307C7023697D88283C6518333D799
:10175000F60293860603130507033307C702C883FF
:1017600048003697588403C76183B357F7021307BD
:10177000070393860703B387C7025485BA97DC85AE
:10178000EFF02FA903C53183EFF0CFAE41016FE039
:101790007FA08280411122C6370400408545130591
:1017A000044026C44AC24EC0EF00704021C5130554
:1017B00004408545EF00F03E83C761833704002075
:1017C000850793F7F70F1307C00313896183938489
:1017D000518313040401938931836384E702230056
:1017E000F9003D3783C60900034609008C20082014
:1017F000EFE09FE03244A244124982494101730064
:10180000203098202300090005071377F70F6304A1
:10181000F70098A0F9B71C202380040061478507D2
:1018200093F7F70F6384E7001CA065BF83C7090027
:10183000230004001D47850793F7F70F6385E70032
:101840002380F90079BF2380090061BFEFE25F9236
:101850000547238AE182EFF0BFEB6FE0BF93238A55
:10186000018282801C219306000218316396D70002
:101870006304F7000145828050319306000263142F
:10188000D600A30205005021930600026314D6007F
:10189000230205003031930600026314D600A30131
:1018A00005003021930600026314D60023010500D1
:1018B000930600026314D700A3000500130700027B
:1018C0006394E700230005009DE158318947E3E375
:1018D000E7FA6316F70058218D47E3EDE7F8383152
:1018E0009547E3E9E7F808311335650082808547BD
:1018F000E397F5FE5C31E3EFF5F6E392B7FE5C218A
:10190000E3FFF5FC85BFEFE2BF86AE8481452A8404
:10191000913F21C19947014563ED97025830A9468F
:101920005C203307D70205453E97B7070020238880
:10193000E70038303C203307D7023E97A38AE18284
:101940001C301820B387D702BA97238BF182A38962
:1019500091826FE03F841C21130700026399E70422
:1019600018316307F7000145828001456FE09F82CF
:10197000B707002003C70701A9475956B356F70216
:1019800054B1B386C602369758A103C75183B356E4
:10199000F70234B1B386C602369738A103C7618314
:1019A000B357F7021CB1B387C702BA971CA1EFE285
:1019B0002FFC9821930700026315F70083C731833A
:1019C0009CA1AE8481452A84EFF0DFE959DD98209F
:1019D0009D46E3ECE6F85C302946B387C702502009
:1019E0000506B29793F7F70F630DD70013B687017B
:1019F0001346160032971377F70F6313D70001478A
:101A000098A0DD46614763E3F6000147998F93F79D
:101A1000F70F294733D7E702D956054558B03307A2
:101A2000D702BA975CA099B7EFE28FF49821930799
:101A300000022A84AE846315F70083C731839CA11A
:101A400085452285EFF01FE26DC598209D47014531
:101A500063E1E70E182083C76183A9461306B0032C
:101A6000BA9718303307D7029306C003BA9793F793
:101A7000F70F13B7C703134717006363F6008146D8
:101A8000958F93F6F70F302083C75183A945B297FE
:101A900030303306B6029305B003B2973E97137702
:101AA000F70F9337C70393C717001306C00363E309
:101AB000E5000146118F370600204C200346060141
:101AC00029451377F70F2E964C30B385A5025D4557
:101AD0002E96B29793F7F70F03C6318393B587011C
:101AE00093C515002E961376F60F81456373F500A6
:101AF000E1458D8F9D4593F7F70F6313B6000146BF
:101B000090A02946B3D5C70259554CB0B385A5025C
:101B1000AE975CA0B357C70233D6C6023CB010B034
:101B2000B387A7023306A6023E9738A0054536962E
:101B300010A06FE02FE6EFE2AFE379718545114524
:101B400002CA02CC02CE02D002D202D402D602C60F
:101B500002C8EF00007893070020FC823714014090
:101B60008D473ECC4C08E147130504803ECED92179
:101B700093070040FC824C089147130504803ECE39
:101B8000552985451165EF00C074F1673744014060
:101B9000938707203ED00C10B7070C001305048074
:101BA0003ED402D223160102EF00F0010546930550
:101BB000505213050480EF00300E930750337C869B
:101BC000680085473EC8230701005523130504809C
:101BD0008545EF00100B814513050480EF00300FA1
:101BE00045616FE02FDBEFE20FD79566938741AA3F
:101BF0001386A65A9386065092A3D6A3054693064B
:101C0000A0FAB7440140B0A3A8B3F4A301441389D8
:101C100041AA938404809D49930500082685EF001E
:101C2000100C7DD9B30789008C2326850504EF00AD
:101C3000100AE31334FF6FE04FD5EFE2CFD1156701
:101C4000938741AA1307A75A9AA30947B8A3183143
:101C50001021B74401401207518FB8B338313021F9
:101C600001441207518FD8A358315021138941AA3A
:101C70001207518FD8B36D77130757A5ECA3A38331
:101C800007009AA793840480A94993050008268534
:101C9000EF00F0047DD9B30789008C232685050465
:101CA000EF00F002E31334FF6FE02FCEEFE24FCCF2
:101CB000138401A91C304111B704004013F7F70049
:101CC0009183DC803C2058801385044013F7F70093
:101CD0009183DC813C305881814513F7F700918373
:101CE0005882DC82512D239204424C200A85938431
:101CF0000440EFF05FC185452685BD2DEFF05FA163
:101D000041016FE02FC9411122C6374401409305BC
:101D1000505213050480EF00207D05C51305048093
:101D2000EF00607B93877183982385461375F50FC9
:101D30006302D70415CB8945630CB7048D4663074E
:101D4000D706374401409305707213050480EF00F5
:101D5000A07919C5014693057072130504802D2FD3
:101D600032444101730020301307A00AE31BE5FC55
:101D700094A3C1BF130750056319E500094798A351
:101D8000938701A923ACF1826DBF2380070055BF63
:101D90001387818314431386160010C388A2130788
:101DA0005005E310E5FA0D4798A361BF9386818340
:101DB0001308A00A904263140505A30F06FE2380B2
:101DC0000700938701A994231546638AC6001D4620
:101DD000638FC600E397E6F6EFF05FED9DB79C33A7
:101DE00081C7EFE07FD2B1BFEFE07FD999BF9C33CD
:101DF00081C7EFF0EFBFB1B7EFF0CFC699B71307C8
:101E0000160098C208A28CA32DBFEFE2CFB43757BB
:101E10000400938641AA1307A75A98C26D77130747
:101E200057A5B7440140DAA20144138941AA93841B
:101E300004809949930500082685552565DDB3077B
:101E400089008C23268505045925E31534FF6FE0AE
:101E5000CFB3EFE24FB037570600938641AA13077E
:101E6000A75A98C26D77130757A5B7440140DAA265
:101E70000144138941AA9384048099499305000879
:101E80002685B12D65DDB30789008C2326850504E1
:101E90003D2DE31534FF6FE04FAFB7170240984375
:101EA000B706FFF81367170098C3D843758FD8C3D8
:101EB0009843B706F7FEFD16758F98C39843B7068B
:101EC000FCFFFD16758F98C3D843B70681FFFD163A
:101ED000758FD8C337079F0098C7B746024003A73E
:101EE00006801367070123A0E680D843B706C1FF29
:101EF000FD16D8C3D843D8C3D84313670740D8C307
:101F0000D843758FD8C3D843B7061000558FD8C3B0
:101F10009843B7060001558F98C3984393166700FE
:101F2000E3DD06FED843B7160240719BD8C3D84301
:101F300013672700D8C32147DC42B18BE39EE7FE3D
:101F4000828001A001A001A001A001A001A001A028
:101F500001A001A001A001A001A001A001A001A079
:101F600001A001A001A001A001A001A001A001A069
:101F700001A001A001A001A001A001A001A001A059
:101F800001A001A001A001A001A001A001A001A049
:101F900001A001A001A001A001A001A001A001A039
:101FA00001A001A001A001A001A001A001A097F142
:101FB000FF1F93812186173100201301A1041715FB
:101FC00000001305658997E5FF1F9385A503138618
:101FD000818163FAC5008322050023A05500110505
:101FE0009105E3EAC5FE13858181938581AB637713
:101FF000B500232005001105E36DB5FEFD42739089
:1020000002BC8D42739042809302800873A002301C
:1020100097E2FFFF9382820293E232007390523084
:10202000EFF0BFE797F2FFFF9382026373901234E1
:10203000730020309C4513F7070113F8F70001C720
:10204000D8413368E80037270240145B3707000F98
:10205000758F4DEB8546238ED1823717014063156E
:10206000E5009A2135839AA18E2113F7F50F39C324
:1020700018418146854E3D4F930F800293028004A4
:10208000214E3396DE00B3F8C50063111603939812
:10209000260033131F011343F3FF3377E300B31814
:1020A000180133E7E8006397F70750C98506E39AFC
:1020B000C6FD18C11307F00F6375B70454412146DC
:1020C000854E3D4F930F800293028004414EB3989A
:1020D000CE0033F715016392E802131726000117AB
:1020E0003313EF001343F3FFB376D3003317E80045
:1020F000D98E6395F703232A15010506E319C6FD5A
:1021000054C1828037170140E310E5F603C7C1834D
:1021100021DF81BFE39C57F810C949BFE39F57FCFB
:1021200023281501D9BFB71701406316F50083C7EF
:10213000C18391C3B58108456D8D3335A000828080
:10214000B71701406316F50083C7C18391C3B581FA
:102150000CC98280B71701406316F50083C7C1839D
:1021600091C3B5814CC9828023A0A18482809387CA
:1021700001849443182181E63C21920721A89443CD
:102180000546639FC6023C21103192076314D600B6
:1021900093E707F8B7E600E093F7F70FBA962380C6
:1021A000F6408546935757003397E6005441A5C241
:1021B000938707048A07B7E600E0B69798C3828042
:1021C0008C4389466391D50214313C216365D60066
:1021D0008A06B6975DB79386E6038A06B69793F7A5
:1021E000F70F920775B790438D46631CD6001431E4
:1021F0003C216364D6008606E9BF9386C60786063F
:10220000F1BF94439147E39EF6F81C31BDB7938725
:1022100007064DB7371702405C439146B18B638583
:10222000D700A1466382D706B7177A0093870720A5
:102230001CC1371602405C42370700201307070015
:102240009183BD8BBA9794231C41B3D7D7005CC14F
:102250005442A1829D8ABA969422B3D6D70014C55F
:102260005442AD829D8A36971823B3D7E7005CC5E8
:102270005842398393763700138781803697182325
:10228000B3D7E7021CC982805C435843C166C98347
:10229000BD8B758F8907C5466393D700C94701EF8A
:1022A0003747024003270780418B09CF37177A0051
:1022B0001307072021A83717024058439316E70059
:1022C000E3D606FE37173D0013070790B387E702F2
:1022D00085B799C5371702401C4F5D8D08CF8280A6
:1022E000B7170240984F1345F5FF798D88CF82804C
:1022F00099C5371702405C4F5D8D48CF8280B71774
:102300000240D84F1345F5FF798DC8CF82801E213A
:1023100037370140130707C0C207C1836304E502D2
:10232000370700406300E50213070740630CE50030
:1023300037170040930607806306D500130707C0D0
:102340006316E500BA2193F7F7F8D98FFA2193F7CE
:10235000F7CFC207C183D98F1EA1DE215EB59E21B2
:102360001EB5B7370140938707C06314F5009C255D
:102370001EB985475EA982801E2189C593E7170093
:102380001EA18280C207C183F99BC207C183CDBF52
:102390005E2501C6DD8D4EA5828093C5F5FFFD8DBE
:1023A000DDBF93C5F5FFC205C1810EA982801E293C
:1023B0004A25ED8F4205418189C76D8D3335A000D7
:1023C000828001458280EFD2BFDA1629F577FD17AA
:1023D000F58FF621DA257971D58F1EA95625FD775F
:1023E0009387379FF58FD6212A842EC6D58F9625C1
:1023F000D58FB625D58F5EA55E29C207C18393F719
:10240000F7CFD98F5EA96808EFF0DFE0B74701404A
:1024100093870780B245631AF404A2575624654790
:10242000B387E702C206C186984163D20604060755
:1024300052244206B3D7E702130740064186B3D6BB
:10244000E702B3F7E7029206635506028E07938709
:102450002703B3D7E70213F77700B367D700C207A4
:10246000C1831EA445616FD0FFD2925745BF0A07B2
:10247000C1B7920793872703B3D7E702BD8BD58FE8
:10248000F9BF91C55E250967D98F5EA582805A255F
:10249000F977FD17F98FD5BF13F7F50F854715832A
:1024A000B395B7006319F7009307C500984301CEB1
:1024B000D98D8CC38280894693074501E318D7FEE6
:1024C00093070501E5B793C5F5FFF98DDDB793F5E2
:1024D000F51F4EA182804A211375F51F82800A21C3
:1024E0006D8D3335A000828013F7F50F8546158377
:1024F000B397B6006311D7025A25F98F1A21014507
:102500004207418381CB0545A181B315B5006D8F8D
:102510003335E000828089466314D7001A29F1BF61
:102520005A29E1BFB707002083A7470137177A0070
:1025300013070720B3D7E70293F7F70F2383F1843C
:102540001307803EB387E7022392F1848280B7F7B6
:1025500000E0D8438146799BD8C303D74184330632
:10256000A70290CBD4CB98431367070198C3984335
:102570001367170298C3D843058B75DF9843799B7F
:1025800098C38280B3C7A5008D8B3307C50081E750
:102590008D4763EDC700AA87637EE5089421850710
:1025A0008505A38FD7FEE3EBE7FE828093763500A7
:1025B000AA8789CA942185078505A38FD7FE93F63C
:1025C0003700C5BF9376C7FF138606FE63F0C706C4
:1025D00083A3050083A2450083AF850003AFC50038
:1025E00083AE050103AE450103A3850183A8C501A0
:1025F0009385450223A0770003A8C5FF23A25700B7
:1026000023A4F70123A6E70123A8D70123AAC70122
:1026100023AC670023AE17019387470223AE07FF61
:1026200075B790419107910523AEC7FEE3EBD7FE46
:10263000E3E6E7F682800000940A0000AC0A00009E
:10264000B80A0000C40A0000D00A0000E40A000032
:10265000F00A0000FC0A0000000400000000000274
:10266000390F0000004080523F065B4F666D7D07CA
:102670007F6F00005848D8D300777C395E79717D30
:1026800076060E003800545C7300506D781C4400D0
:10269000006E0039640F000800F7FCB9DEF9F1FDA7
:1026A000F6868E00B800D4DCF300D0EDF89CC400B0
:1026B00000EE000010000010000800100001008073
:1026C00000400020200000800800000000080140B9
:1026D0000008014000080140000C014000080140D2
:1026E000000C0140000C0140000C014000080140BA
:1026F00000080140000C01404000200000010020C3
:102700000040100080000002000C0140000C01405D
:10271000000C01400010014000100140000C01407D
:10272000000C0140000C0140CE130000D413000047
:10273000DA130000BE130000EC130000EC130000DD
:10274000EC130000E0130000B8130000EC130000CD
:10275000EC130000EC130000E6130000C2130000AD
:10276000EC130000EC130000EC130000CA1300008F
:10277000C613000044454C205245434F5244203F6D
:102780000000000053555245203F000044454C4591
:10279000544544004E4F2046554E4354494F4E2019
:1027A0005945740044454C20444154412042415312
:1027B00045203F0044415441204241534520444577
:1027C0004C455445440000004552524F52203A2097
:1027D00044415441424153452049532046554C6C95
:1027E00000000000494E505554204552524F72008F
:1027F0003016000034160000381600005216000093
:10280000521600003C16000040160000441600005E
:102810005216000052160000481600004C16000028
:10282000501600000100020004000004000800002F
:10283000000C0140000C0140000C0140000C014064
:10284000000C014000080140000801400008014060
:04285000000801403B
:102854000000000001020304010203040607080942
:102864000C320000006CDC020204060808000400BC
:08287400020001000000000059
:00000001FF
