:100000006F00103613000000130000001300000002
:100010001300000013000000130000001300000094
:100020001300000013000000130000001300000084
:08003000130000007300100032
:100038000000000000000000A0010000A401000072
:1000480000000000F80A00000000000000000000A6
:10005800FA0A0000FC0A000000000000000000008E
:10006800FE0A000000000000000B00000000000075
:10007800020B0000040B0000060B0000080B000038
:100088000A0B00000C0B00000E0B0000100B000008
:10009800120B0000140B0000160B0000180B0000D8
:1000A8001A0B00001C0B00001E0B0000200B0000A8
:1000B800220B0000240B0000260B0000280B000078
:1000C8002A0B00002C0B00002E0B00000C05000072
:1000D800320B0000340B0000360B0000380B000018
:1000E8003A0B00003C0B00003E0B0000400B0000E8
:1000F800420B0000440B0000460B0000480B0000B8
:100108004A0B0000A4070000A8090000500B0000DB
:10011800520B0000540B0000560B0000580B000057
:100128005A0B00005C0B00005E0B00000000000092
:080138000000000000000000BF
:10014000397101436EC619A0397141536AC866CA34
:1001500062CC5ECE19A0397101535AD056D252D416
:100160004ED64AD826DA22DC06DE3301614082828E
:1001700041114AC026C222C406C68282B24D410144
:10018000024D924C224CB24B4101024B924A224A00
:10019000B2494101024992442244B2404101828065
:1001A0007300203001A0EFF2BFFC01118545254509
:1001B00002C202C402C602C802CA02CC02CEEF10BA
:1001C0004001854537052000EF108002854509452F
:1001D000EF00F03B930700307C8237150140F14778
:1001E0003EC64C008D47130505C03EC4EF00F02607
:1001F000E1679387076A3EC8B7070040375400405D
:100200003ECA93070040FC850C0891671305044023
:10021000FC86EF00B049130504408545EF003058D7
:10022000854513050440EF00505C0561A5B7EFF26A
:100230009FF2B75400402A892E8A32849389044061
:10024000B70502004E85EF00305F7DF9138504404D
:100250008545B7040300B7590040EF00D055850429
:10026000938A0940A6855685EF00B05B65DD13854E
:10027000094001469305000DB7090700B754004037
:10028000EF0010599389290893840440CE85268570
:10029000EF00305965DDB7040010B7590040938472
:1002A0000408938A0940A6855685EF00F05865DD5D
:1002B00013850940D285B7090700B7540040EF0005
:1002C00070549389490893840440CE852685EF00B5
:1002D000505565DD0504B7090010B7540040370AD2
:1002E00007001374F40F9389090893840440130AD8
:1002F0004A08CE852685EF00305411CD834509008C
:100300002685930A1900EF00F04FD2852685EF006D
:10031000505165DD56897D141374F40F79F8375503
:100320000040854513050540EF00904AB9BDEFF246
:100330009FE2B75400402A8413890440B7050200A5
:100340004A85EF00704F7DF9138504408545B70459
:10035000030037590040EF00104685049309094017
:10036000A6854E85EF00F04B65DD1305094001467B
:100370009305000D37090700B7540040EF005049BE
:100380001309290893840440CA852685EF00704923
:1003900065DDB704001037590040938404089309C1
:1003A0000940A6854E85EF00304965DD13050940FB
:1003B0008145B704070037590040EF00B0449384EB
:1003C000440893090940A6854E85EF00904565DDF8
:1003D000130509408545B704030037590040EF0075
:1003E000903D850493090940A6854E85EF00704332
:1003F00065DD1305094005469305000D3709030027
:10040000B7540040EF00D040090993840440CA85E6
:100410002685EF00104165DD37090010B75900400F
:10042000130A34011309090493840940CA852685F7
:10043000EF00904065DD2685EF00103D0504A30F19
:10044000A4FE85452685EF00503AE31144FF85451B
:1004500013850940EF00D0370DBBEFF27FD17971E2
:10046000854511453714014002CA02CC02CE02D0A4
:1004700002D202D402D602C602C8EF0090558D44C3
:10048000E17741494C0813050480FC824ACE26CC12
:10049000EF00A07C930780024C08130504803ECE39
:1004A000E482EF00807B85452145EF009052930761
:1004B00080034C08130504C0FC824ACE26CCEF0012
:1004C000C07993070008FC824C0893078004130549
:1004D00004C03ECEEF0060789D450545EF00501A00
:1004E0009307000805443ED00810B1473ED422D6F9
:1004F00002D2EF00406F930770127C866800894734
:100500005C8722C8EF007036456169B141119307DD
:1005100080F813050008DC87EF0080731305F100F5
:100520000546BD452933C922410173002030EFF251
:100530009FC2011102C602C802CA02CC02CEA53176
:10054000B787801E938707081546AD4568003EC6ED
:1005500037140140930780F82308F100054AC13998
:100560008149052813040480412EC53D8545228517
:10057000EF00C07DAA846303AA002D268945228549
:10058000EF00C07C2A896383A900E122268ACA89F8
:10059000F1BFEFF2FFBD79718545114502CA02CC6A
:1005A00002CE02D002D202D402D602C602C8EF00A6
:1005B000504293070020FC82371401408D473ECC07
:1005C0004C08E147130504803ECEEF000069930715
:1005D0000040FC824C089147130504803ECEB52DA7
:1005E00085451165EF00F03EF16737440140938780
:1005F00007203ED00C10B7070C00130504803ED432
:1006000002D223160102EF00904005469305505296
:1006100013050480EF00B04C930750137C866800EC
:1006200085473EC823070100EF00302413050480EE
:100630008545EF007049814513050480EF00904D1A
:10064000456189BEEFF2DFB2938741849C33371551
:10065000014013844184A16513050580B5C3EF00F3
:1006600080701C3037150140A145130505C0A1CF8E
:10067000EF00606F1C3037150140C145130505C000
:10068000B1C7EF00406E1C303715014093050002E2
:10069000130505C09DCFEF00006D1567938701839B
:1006A0001307A75A9AA30547B8A3183013850183E7
:1006B000B8B33757AA001307F75FD8C38126D9BC50
:1006C000EF00A06B79BFEF00406B6DB7EF00E06A01
:1006D0005DBFEF00806AD1B7EFF29FA91146814557
:1006E00013855184A9367DB4EFF2FFA61384C1812E
:1006F0001385C1812D399566938781859386A65A86
:1007000096A38D46B4A31420B7440140A3830700E9
:10071000B4B314301389818593840480D4A3342026
:10072000A949D4B334300144F4A3ED76938656A599
:1007300096A7930500082685EF00D03E7DD9B30724
:1007400089008C2326850504EF00D03CE31334FF99
:100750002DBCEFF25FA09566938781851386A65A1C
:100760009386065092A3D6A315469306A0FAB744E3
:100770000140B0A3A8B3F4A30144138981859384F5
:1007800004809D49930500082685EF00B0397DD986
:10079000B30789008C2326850504EF00B037E313E7
:1007A00034FFE5B2411122C637440140930550524F
:1007B00013050480EF00B03721C513050480EF0056
:1007C000F03593878180942385451375F50F6383F6
:1007D000B6049DCA0947638DE6040D466388C606C4
:1007E000374401409305707213050480EF003034E4
:1007F00001C901469305707213050480EF00302E85
:1008000032444101730020301307A00AE31AE5FCCB
:100810008CA3F9B7130750056319E500094798A39E
:100820009387418423A6F18065BF238007004DBFD5
:100830001387C18014431386160010C388A21307C0
:100840005005E31FE5F80D4798A359BF9386C18073
:100850001308A00A904263120505A30F06FE238029
:10086000070083C741846380E7026366F700E3996A
:10087000B7F6C93BB5B711476389E7001947E3915C
:10088000E7F69D35B1BF893DA1BF371501408945C8
:10089000130505806529753DA1B7930516008CC227
:1008A00008A25DB7EFF23F8B95669387818513862B
:1008B000A65A9386065092A3D6A31D469306A0FA85
:1008C000B7440140B0A3A8B3F4A3014413898185C0
:1008D000938404809D49930500082685EF009024A9
:1008E0007DD9B30789008C2326850504EF0090226B
:1008F000E31334FF6FF07F89EFF29F8779718545AD
:10090000114502CA02CC02CE02D002D202D402D6D3
:1009100002C602C8EF00F00B91679107FC82371402
:1009200001408D473ECC4C08E147130504803ECE84
:100930002D26A147FC824C089147130504803ECE2A
:10094000292E854537050200EF00900AF1673744EC
:100950000040938707203ED00C10B707080013050E
:1009600004403ED402D223160102EF00500A05468D
:100970009305707213050440EF007016930760230F
:100980007C86680085473EC823070100F92D1305C2
:1009900004408545EF005013814513050440EF00E6
:1009A000701745616FF00FFF411122C637440040B8
:1009B0009305707213050440EF00701711CD9387F3
:1009C00001819843142389CE9306170094C30C2306
:1009D00013050440EF00101432444101730020302D
:1009E00037150140916513050580412E0146930599
:1009F000707213050440EF00900EF9BFEFF24FF74D
:100A0000B744004023A8A1801389044013840181C6
:100A1000930500084A85EF00F0107DD93715014095
:100A200091651305058081260546138504409305CD
:100A30007072EF00D00A1C40138504401387170022
:100A400018C08C23EF00100D6FF0CFF4B7170240E1
:100A50009843B706FFF81367170098C3D843758FFC
:100A6000D8C39843B706F7FEFD16758F98C3984311
:100A7000B706FCFFFD16758F98C3D843B70681FFF4
:100A8000FD16758FD8C337079F0098C7B746024039
:100A900003A706801367070123A0E680D843B706A3
:100AA000C1FFFD16D8C3D843D8C3D8431367074046
:100AB000D8C3D843758FD8C3D843B7061000558F15
:100AC000D8C39843B7060001558F98C3984393162F
:100AD0006700E3DD06FED843B7160240719BD8C31A
:100AE000D84313672700D8C32147DC42B18BE39E6C
:100AF000E7FE828001A001A001A001A001A001A049
:100B000001A001A001A001A001A001A001A001A0DD
:100B100001A001A001A001A001A001A001A001A0CD
:100B200001A001A001A001A001A001A001A001A0BD
:100B300001A001A001A001A001A001A001A001A0AD
:100B400001A001A001A001A001A001A001A001A09D
:100B500001A001A001A001A001A001A001A001A08D
:100B600097010020938101CB174100201301814997
:100B7000170500001305C57F97F5FF1F938585486E
:100B80001386818063FAC5008322050023A05500E7
:100B900011059105E3EAC5FE138581809385C18621
:100BA0006377B500232005001105E36DB5FEFD4216
:100BB000739002BC8D42739042809302800873A0B0
:100BC000023097F2FFFF9382624793E23200739004
:100BD0005230EFF0BFE79702000093828295739046
:100BE0001234730020305841032805004C45370665
:100BF0000140930706403E979346F8FFB1C5832511
:100C00000640F58D2320B640D043F18ED4C3144363
:100C1000B3E6060114C3184190479346F7FF758E5B
:100C200090C7D047F18ED4C7144541466399C6009A
:100C30009447D98E94C7D447558FD8C78280B6972A
:100C40009443558F98C382801C43F58F1CC38280C8
:100C5000B707014023AAA74082809C4513F70701EC
:100C600013F8F70001C7D8413368E800372702407E
:100C7000145B3707000F758F4DEB8546238AD180B3
:100C8000371701406315E5009A2135839AA18E211B
:100C900013F7F50F39C318418146854E3D4F930F29
:100CA000800293028004214E3396DE00B3F8C50023
:100CB000631116039398260033131F011343F3FFA8
:100CC0003377E300B318180133E7E8006397F707B9
:100CD00050C98506E39AC6FD18C11307F00F637566
:100CE000B70454412146854E3D4F930F8002930235
:100CF0008004414EB398CE0033F715016392E802A9
:100D00001317260001173313EF001343F3FFB376D5
:100D1000D3003317E800D98E6395F703232A150112
:100D20000506E319C6FD54C1828037170140E31060
:100D3000E5F603C7418121DF81BFE39C57F810C965
:100D400049BFE39F57FC23281501D9BFB7170140BE
:100D50006316F50083C7418191C3B58108456D8D48
:100D60003335A0008280B71701406316F50083C7B2
:100D7000418191C3B5810CC98280B71701406316C8
:100D8000F50083C7418191C3B5814CC98280B70703
:100D90000140635A0504DC4F935605011318050101
:100DA0003707300013F6F60013580801B376E50054
:100DB000635E05066399E604930606010D46B316C5
:100DC000D60093C6F6FFF58F99C9135755011377CF
:100DD000F73F12073317E800D98F63550506370729
:100DE00001405CCF828037270240145BDC43370729
:100DF000000F758F55F313D71700F976CE07758F4F
:100E0000CD83D98F51BF1317B500635607008D46A8
:100E1000B396C6007DB7135755011377F73F1207F6
:100E20003317E8001347F7FFF98F79BF6390E602A5
:100E3000370601405442370700F17D17F98F758F4F
:100E400058C2C1F5370701405CC382801317B50053
:100E5000635C07008D46B396C60093C6F6FFFD8E11
:100E6000B707000FD58FF1BF13575501120733177E
:100E7000E8001347F7FF7D8FB707000FD98FD1B771
:100E800013F7C50F93F73500B7050140BA959445A0
:100E90008A073D473317F7001347F7FF758F98C54B
:100EA00098453315F500598D88C58280EFF24FAC17
:100EB00079712A84462168082EC6992C92573747A3
:100EC0000F001307072433D7E702C204C18093F44D
:100ED00004FCC204C180B24561651305056A13169E
:100EE00007014182D18C46A01620C206C182F99A20
:100EF000C206C18216A094416369D5048606B3D7A1
:100F0000D7029146139707014183BA876373D700CD
:100F1000914705064206C2074182C18312B05EAC0A
:100F20001E20DA21B62593E717001EA01E20558F3C
:100F3000C207C18393F757BFD98F1EA09A25DE251C
:100F4000D98F1EA445616FF0EFA4EA2131667D16AA
:100F5000631DC5020D46B386C602B3D7D702C207CA
:100F6000C1839396470199E293E71700A166D58F55
:100F70009306C0123307D7029306803E3347D70249
:100F80000507420741831AB059BF6546B386C602BA
:100F9000B3D7D7029166C207C183D58FD9B71E21B7
:100FA00089C593E717001EA18280C207C183F99B00
:100FB000C207C183CDBF1E2189C593E707101EA1BB
:100FC0008280C207C18393F7F7EFC207C183C5BF11
:100FD0001E2189C593E707201EA18280C207C18315
:100FE00093F7F7DFC207C183C5BF1E2189C593E709
:100FF00007401EA18280C207C18393F7F7BFC207D3
:10100000C183C5BF0EA982800A291375F50F82809E
:1010100093F7E50F19C293E71500C207C1831EA914
:1010200082805E290A2D42055D8D6D8D220521810C
:101030000D8D133515008280411102C402C693D76D
:10104000C5012AC63EC4A247A205A18199CBB247D9
:10105000D1073EC6B247884341016D8D3335A000AC
:101060008280B247C181E107EDB7938781819443C4
:10107000182181E63C21920721A894430546639FED
:10108000C6023C21103192076314D60093E707F89B
:10109000B7E600E093F7F70FBA962380F64085464F
:1010A000935757003397E6005441A5C2938707042E
:1010B0008A07B7E600E0B69798C382808C438946DA
:1010C0006391D50214313C216365D6008A06B69738
:1010D0005DB79386E6038A06B69793F7F70F9207F4
:1010E00075B790438D46631CD60014313C21636470
:1010F000D6008606E9BF9386C6078606F1BF9443ED
:101100009147E39EF6F81C31BDB7938707064DB7AC
:10111000371702405C439146B18B6385D700A146E7
:101120006384D706B7177A00938707201CC1371648
:1011300002405C4237070020130707009183BD8BF4
:10114000BA9794231C41B3D7D7005CC15442A18203
:101150009D8ABA969422B3D6D70014C55442AD8264
:101160009D8A36971823B3D7E7005CC55842398368
:1011700093763700370700201307070136971823A7
:10118000B3D7E7021CC982805C435843C166C98358
:10119000BD8B758F8907C5466393D700C94701EF9B
:1011A0003747024003270780418B09CF37177A0062
:1011B0001307072021A83717024058439316E7006A
:1011C000E3D606FE37173D0013070790B387E70203
:1011D000B1BF99C5371702401C4F5D8D08CF828083
:1011E000B7170240984F1345F5FF798D88CF82805D
:1011F00099C5371702405C4F5D8D48CF8280B71785
:101200000240D84F1345F5FF798DC8CF8280EFE2B9
:101210003FF61629F577FD17F58FF621DA25797156
:10122000D58F1EA95625FD779387379FF58FD62139
:101230002A842EC6D58F9625D58FB625D58F5EA547
:101240005E29C207C18393F7F7CFD98F5EA96808DB
:10125000C135B747014093870780B245631AF4044C
:10126000A25756246547B387E702C206C186984154
:1012700063D20604060752244206B3D7E7021307D7
:1012800040064186B3D6E702B3F7E70292066355FC
:1012900006028E0793872703B3D7E70213F7770079
:1012A000B367D700C207C1831EA445616FE09FEEFC
:1012B000925745BF0A07C1B7920793872703B3D751
:1012C000E702BD8BD58FF9BF91C55E250967D98F20
:1012D0005EA582805A25F977FD17F98FD5BF13F7E0
:1012E000F50F85471583B395B7006319F70093078A
:1012F000C500984301CED98D8CC38280894693075F
:101300004501E318D7FE93070501E5B793C5F5FF3F
:10131000F98DDDB793F5F51F4EA182804A21137533
:10132000F51F82800A216D8D3335A000828013F76E
:10133000F50F85461583B397B6006311D7025A257A
:10134000F98F1A2101454207418381CB0545A181CF
:10135000B315B5006D8F3335E00082808946631484
:0C136000D7001A29F1BF5A29E1BF000094
:10136C00000000000102030401020304060708093F
:08137C00020406080000000055
:00000001FF
